:100000005A23040000000000FFFFFF00FFFFFF0075
:10001000FFFFFF00FFFFFF00FFFFFF00FFFFFF00EC
:10002000FFFFFF00FFFFFF00FFFFFF00FFFFFF00DC
:10003000FFFFFF00FFFFFF00FFFFFF00FFFFFF00CC
:10004000FFFFFF00FFFFFF00FFFFFF00FFFFFF00BC
:10005000FFFFFF00FFFFFF00FFFFFF00FFFFFF00AC
:10006000FFFFFF00FFFFFF00FFFFFF00FFFFFF009C
:10007000FFFFFF00FFFFFF00FFFFFF00FFFFFF008C
:10008000FFFFFF00FFFFFF00FFFFFF00FFFFFF007C
:10009000FFFFFF00FFFFFF00FFFFFF00FFFFFF006C
:1000A000FFFFFF00FFFFFF00FFFFFF00FFFFFF005C
:1000B000FFFFFF00FFFFFF00FFFFFF00FFFFFF004C
:1000C000FFFFFF00FFFFFF00FFFFFF00FFFFFF003C
:1000D000FFFFFF00FFFFFF00FFFFFF00FFFFFF002C
:1000E000FFFFFF00FFFFFF00FFFFFF00FFFFFF001C
:1000F000FFFFFF00FFFFFF00FFFFFF00FFFFFF000C
:10010000FFFFFF00FFFFFF00FFFFFF00FFFFFF00FB
:10011000FFFFFF00FFFFFF00FFFFFF00FFFFFF00EB
:10012000FFFFFF00FFFFFF00FFFFFF00FFFFFF00DB
:10013000FFFFFF00FFFFFF00FFFFFF00FFFFFF00CB
:10014000FFFFFF00FFFFFF00FFFFFF00FFFFFF00BB
:10015000FFFFFF00FFFFFF00FFFFFF00FFFFFF00AB
:10016000FFFFFF00FFFFFF00FFFFFF00FFFFFF009B
:10017000FFFFFF00FFFFFF00FFFFFF00FFFFFF008B
:10018000FFFFFF00FFFFFF00FFFFFF00FFFFFF007B
:10019000FFFFFF00FFFFFF00FFFFFF00FFFFFF006B
:1001A000FFFFFF00FFFFFF00FFFFFF00FFFFFF005B
:1001B000FFFFFF00FFFFFF00FFFFFF00FFFFFF004B
:1001C000FFFFFF00FFFFFF00FFFFFF00FFFFFF003B
:1001D000FFFFFF00FFFFFF00FFFFFF00FFFFFF002B
:1001E000FFFFFF00FFFFFF00FFFFFF00FFFFFF001B
:1001F000FFFFFF00FFFFFF00FFFFFF00FFFFFF000B
:10020000E0FF2F00401588000000200050158800F6
:10021000200020003015880001002800202A20003E
:1002200010887000F0F321002015880041002000A4
:10023000602C200010887000000E28000015880037
:1002400000000600E0C22100801F7800200020008E
:10025000801F78000A1107004F00B100000006005F
:100260000000FA00F7FF0700F6FF07006A005700DA
:10027000904078008180FB00100020000103DD0029
:10028000067088006C005700904078008180FB0069
:10029000100020008102DD00157088006E005700FC
:1002A000904078008180FB00100020000102DD00FA
:1002B0002470880070005700904078008180FB0017
:1002C000100020008101DD003370880074005700A9
:1002D000104178000281FB00110020000208DD00BF
:1002E0004070880076005700104178000281FB00C2
:1002F000110020000208DD005070880078005700CF
:10030000104178000281FB00110020000208DD008E
:1003100060708800680057001000780070708800D6
:10032000720057001000780080708800050073008C
:1003300004007000030070008080EA004EB897004F
:1003400010886000707080006201500001708000B1
:1003500020E020009080700040E0200010807000BD
:1003600065E02000150070000080EA0012096000BE
:1003700040708000A4E0200014007000C3E0200062
:10038000130070008080EA00807080001088600098
:10039000807080006201500041708000040078008D
:1003A0009080700003007800108070000080EA00E8
:1003B00012096000217080000500780090807000B4
:1003C0007070800010887000170E0700200E070064
:1003D000150E07001E0E0700130E07001C0E070067
:1003E0007170800020708000910870003070800073
:1003F0008080EA0070708000108860000A0E07009C
:10040000130E0700080E0700207080008080EA00AD
:100410007070800010886000717080000070800033
:1004200091087000000E0700090E070000708000A0
:100430008080EA0070708000108860007170800019
:100440003070800091087000F70D07003070800058
:100450008080EA007070800010886000F20D070054
:10046000FB0D0700F00D07007170800030708000F8
:1004700091087000EC0D0700F50D0700307080004A
:100480008080EA007070800010886000E60D070030
:100490003170800040E020009080700020E020005B
:1004A0009080700000E020009080700070708000EC
:1004B00010887000DC0D0700E50D0700100020001B
:1004C000907088000080FA000000060020002000E4
:1004D000801F780030002000801F780090002000EE
:1004E000801F7800402D2000801F78002000200011
:1004F000801F780030002000801F7800400020001E
:10050000801F780050002000801F7800802C200081
:10051000801F780052FF07002F01B100C0002000AB
:10052000801F7800D80D07002F00B10010002000B8
:10053000801F7800D40D07002F00B10000000600D6
:100540000100280060212000108870000140200078
:100550008021200010887000000006000000FA00D2
:10056000C11080000010200000806000C800DE0084
:100570000100E00002003A00B002040000000000A8
:1005800068005700104078000080FB00D010880001
:100590000080FA00000006000000000000000000DB
:1005A000E010800000000600C010800061006000C4
:1005B00000000600C11080000010200000806000D4
:1005C000C800DE000100E00003003A000000000067
:1005D000DA0204000000000000000600F1FF27001E
:1005E0006021200010886000F1BF2F0080212000D2
:1005F0001088600000000600F1FF2700C0202000E6
:1006000010886000F1BF2F00E020200010886000FB
:10061000000006000400E00002003A00100007009D
:1006200000000600811F78000100E00002003D008C
:1006300060001000E08018000300E00002003D00B0
:1006400060011100E0811900050007004F00E00083
:1006500002003B0060001000E0801800000006006F
:10066000020007000400BE00000006006022B8007F
:10067000060220000000D0008180D2000482D20057
:100680008582D2000000A0000202520083825A003C
:1006900003003B000202420083824A000000A100E6
:1006A0000603E900F3FF3A00000006000000060020
:1006B0000C00FA00E02A2000A0708800C02C200066
:1006C000B0708800402D2000C0708800A02D200050
:1006D000D0708800002A2000E0708800E02E200002
:1006E000F070880000002000B01088000000280092
:1006F000C010880048000700000F7800110798001C
:10070000823E2000CF91DE004D00070020079800B8
:1007100031079800000F780011079800660020004C
:10072000CFB3DE006A02570034017800A4017800DC
:100730000603E900030035000201D0008381D200E6
:10074000FBFF370042079800530798000002EB00B8
:10075000B0FF07002E029000BE0290004E019000F4
:10076000DE0190002007980031079800040078000F
:10077000850078000002EB0038000700000F7800C9
:100780001107980012002000CF91DE004E0090006B
:10079000DE00900000027800810278000201E9008A
:1007A000030035008502D1000482D300FBFF37002F
:1007B0002E019000BE0190000400510005805900F8
:1007C0000500360012002000CF91DE0060004700D7
:1007D0001018410010904900600147003200780075
:1007E000A200780061005000E0805800000F7800FF
:1007F00011079800F0108800D2FF2F008021200000
:10080000100861004EFF0700060007000500070002
:100810000080FA000000060000E22400CF80DE0025
:1008200000000600E0102200801F7800E001200098
:10083000801F7800920F07004F00B10000000600F3
:10084000020AB800800278000200B800810042006D
:10085000032AB80081004200000006000400E00006
:1008600002003A001000070000000600839F6800A5
:100870000100E00002003D0060001000E080180070
:100880000300E00002003D0060011100E08119005A
:10089000050007004F00E00002003B006000100070
:1008A000E0801800000006006022B8000602200068
:1008B0000000D0008180D2000482D2008582D20064
:1008C0000000A0000202520083825A0003003B0095
:1008D0000202420083824A000000A1000603E900F0
:1008E000F3FF3A0000000600000006000400FA00D2
:1008F000C9FF0700A20F20008001EB00D0FF070016
:10090000000F7800110798003EB99700CEB9970004
:100910001E0078009E0090000002EB00CFFF070051
:10092000000F78001107980060014700320078003E
:10093000A200780061005000E0805800000F7800AD
:100940001107980060004700100078002010880010
:10095000020028006020200010087100B1FF07008D
:100960000000200040108800870B0700AB0C070038
:100970000080FA000000060000000600F01F2000C2
:100980003016880030002000901688001CFE0700FA
:10099000CEFE070000582200CF80DE00801F7800C6
:1009A000811F780042FF07004F00B1000071220054
:1009B000CF80DE00801F7800811F7800CBFF07000A
:1009C0004F00B100ECFF070000000600809A2000F5
:1009D000801F780000002000801F7800280F07008B
:1009E0004F00B100000006000400FA0000002000E3
:1009F000000F7800140020006A00570010017800F2
:100A00008221DD00130798004EB897001080610026
:100A10000000E00002003200030020000100370067
:100A2000130020006E005700908169001900320009
:100A30006C0057009001780060805100070036007C
:100A4000E2FF0700E1FF0700130020006C005700E1
:100A50001088110018050400000000004EB897002F
:100A60009001780062004700108061000000E00003
:100A700002003200030020000100370013002000B4
:100A80006E0057009081690002003200F00F2000D4
:100A9000000F78001E0078000080FA0000000600B9
:100AA0005400FA0060004700C1932A000C000900BE
:100AB000315878006D00470091942A000D0009001C
:100AC000315878007B00470071952A000D0009001D
:100AD00031587800900220000000470051962A000B
:100AE0000B00090031587800500320000000470037
:100AF00011972A000E0009003158780040042000A8
:100B00000000470001982A000E00090031587800C3
:100B100060004700801F780010002000801F7800D0
:100B200020002000801F78000F0D07006F00B1002B
:100B300000002000801F780040062000801F780001
:100B400000002000801F7800402D2000801F7800CA
:100B5000A5FF07008F00B1000000E0004100320057
:100B600010002000801F7800470C07002F00B10004
:100B70006D004700801F780010002000801F780063
:100B800010002000801F7800F70C07006F00B100F4
:100B900031052000810047000000200080487800D7
:100BA000300520000000470010417800210320009C
:100BB000014051000F003D003005200000004700BB
:100BC000104078000000FB00C100DD0000E22000C2
:100BD0008100400000002000800878001100200003
:100BE000300520000000470010C84000D005040078
:100BF0000000000000002000801F7800000020009E
:100C0000801F7800A20407004F00B100E0662100B9
:100C1000801F780020262000801F7800980E070093
:100C20004F00B1007B004700801F780010002000BB
:100C3000801F780020002000801F7800CA0C070069
:100C40006F00B100E0662100801F780020262000A0
:100C5000801F78008A0E07004F00B1007006040064
:100C60000000000000002000801F780040062000E7
:100C7000801F780010002000801F7800402D200089
:100C8000801F780058FF07008F00B1000000E000CF
:100C9000110032009002200000004700801F780001
:100CA00010002000801F780010002000801F7800B6
:100CB000AD0C07006F00B100E0662100801F7800D6
:100CC00020262000801F78006D0E07004F00B10025
:100CD00070060400000000009805040000000000F9
:100CE00010002000801F7800E70B07002F00B100E4
:100CF0005003200000004700801F780010002000F3
:100D0000801F780010002000801F7800960C0700DC
:100D10006F00B1004004200000004700801F7800F1
:100D200010002000801F780020002000801F780025
:100D30008D0C07006F00B1000080FA000000060073
:100D40000400FA00B20A0700200A2000801F780081
:100D5000B50A07002F00B100680057001040780066
:100D60000080FB00801F7800AF0A07002F00B10051
:100D70006A005700104078000080FB00801F780058
:100D8000A90A07002F00B100D0030700300A200095
:100D9000801F7800A40A07002F00B100E000470080
:100DA0000000200080487800600047001041780073
:100DB0001103200001405100140031006000470081
:100DC000104078000080FB00C100DD0000E2200040
:100DD000010040001007980000002000801F7800EC
:100DE000C40307002F00B1000080FB0080007800E2
:100DF0001E009000010878001100200060004700EC
:100E000010C84000D40604000000000010002000BC
:100E1000801F7800B70307002F00B1000080FB009F
:100E2000107488009C0A07000080FA000000060089
:100E30001000FA0060004700F1982A000400090041
:100E4000315878006500470041992A0004000900E4
:100E50003158780068005700901F7800CA0A0700D0
:100E60002F00B100B00A070060004700801F780023
:100E7000C50A07002F00B100AB0A070000002000E0
:100E80005007980022032000EA00470011001100DB
:100E9000150031006C004700801F78006A00470091
:100EA00010007800C100DD0000E220008100400059
:100EB00011407800801F78006B0C07004F00B100D4
:100EC0006C004700801F7800AF0A07002F00B100B8
:100ED000950A0700110020006A00470010884000B2
:100EE000420704000000000065004700801F7800F2
:100EF000A50A07002F00B1008B0A07000080FA0046
:100F0000000006003200FA006000470091992A00B4
:100F10000E000900315878006F004700819A2A00BE
:100F2000040009003158780074004700D19A2A0063
:100F3000040009003158780079004700219B2A00FD
:100F400004000900315878007E004700719B2A0098
:100F500004000900315878003002200000004700EA
:100F6000C19B2A000400090031587800800220004B
:100F700000004700119C2A00050009003158780044
:100F800060004700801F780010002000801F78005C
:100F900010002000801F7800F30B07006F00B100E5
:100FA00000002000801F780000002000801F7800D3
:100FB000720307004F00B1000080FB00701798001B
:100FC00010002000001F98000003200000004700D0
:100FD00010017800E102200081004700110051005B
:100FE00061003E0000002000801F78000003200008
:100FF0000000470010007800801F780050FF0700B5
:101000004F00B100E0102200801F7800E0012000B6
:10101000801F78009A0D07004F00B1006F00470055
:10102000801F780082FF07002F00B10020032000FE
:10103000801F7800000320000000470010007800A7
:10104000801F78003EFF07004F00B100E010220033
:10105000801F7800E0012000801F7800880D0700C5
:101060004F00B10074004700801F780070FF070038
:101070002F00B10040062000801F780000032000F0
:101080000000470010007800801F78002CFF070048
:101090004F00B100E0102200801F7800E001200026
:1010A000801F7800760D07004F00B10079004700DF
:1010B000801F78005EFF07002F00B100600920004C
:1010C000801F780000032000000047001000780017
:1010D000801F78001AFF07004F00B100E0102200C7
:1010E000801F7800E0012000801F7800640D070059
:1010F0004F00B1007E004700801F78004CFF0700C2
:101100002F00B100800C2000801F78000003200019
:101110000000470010007800801F780008FF0700DB
:101120004F00B100E0102200801F7800E001200095
:10113000801F7800520D07004F00B10030022000E0
:1011400000004700801F780039FF07002F00B10022
:10115000110020000003200000004700108840001C
:10116000E4070400000000008002200000004700A7
:10117000801F780010002000801F780010002000E1
:10118000801F7800780B07006F00B100E0B22000EC
:10119000801F780010132000801F7800380D070092
:1011A0004F00B10010002000801F7800B60A070031
:1011B0002F00B1000080FA00000006000400FA00D1
:1011C0006800570090017800821620001100090085
:1011D0008281D8000100780040BF9F00440B2000AE
:1011E0008401500008003600E00147001000200094
:1011F00080497800430B20006800570010881100D8
:101200000A09040000000000E0014700000020007F
:1012100080497800A4052000E8015700130012005F
:1012200003003600430B200068005700108851006F
:101230006802570094017800E0FF2F0000806100F1
:101240000080FB00C101DE00610047000348780018
:1012500000002000100798000400780010007800BB
:10126000E101600016003200E102470015407800FD
:101270000080FB00C101DD00809C2A0003004000CB
:1012800010027800140798000500780010407800DC
:1012900061404000804A78000080FB00C101DD0011
:1012A000809C2A00030040001000420010079800B4
:1012B0004180DE0010079800700904000000000063
:1012C00061004700104078000080FB00C101DD0094
:1012D000809C2A00830140001300780010079800CA
:1012E0001E4078000004E000040032006200470065
:1012F0001000780060001000010037001E00900010
:101300000080FA00000006000A00FA000000200039
:10131000000F7800600047001002780002102000E3
:1013200002005200990031001E0078008000EB009E
:101330000001EB00B706070062662600630E24007A
:101340001B07070038080700100798008000EB0013
:101350000001EB00AF0607000200200003FC2300A1
:101360001307070030080700801F780093FF07006D
:101370002F00B100CF80DE000081EB00A506070042
:10138000D2CC2C00C3F823000907070030079800CF
:101390004107980032002000620047001010B8009A
:1013A000801F780085FF07002F00B100CF80DE008E
:1013B0000081EB00970607003233230033F7230048
:1013C000FB0607003E019000CE019000B10307002C
:1013D00030079800410798001E0090008000EB0045
:1013E0000001EB008B060700020020000309240027
:1013F000EF0607000C080700801F78006FFF07004A
:101400002F00B100CF80DE000081EB0081060700D5
:10141000D2CC2C00C3E42300E50607003E01900077
:10142000CE0190009B030700FF07070020079800EC
:101430006800570010417800624051003A003A00BD
:101440001E0090008000EB000001EB007106070019
:101450003233230033FF2300D5060700F2070700CD
:10146000801F780055FF07002F00B100CF80DE00FD
:101470000081EB0067060700D2CC2C00C3F82300E4
:10148000CB06070030079800410798003200200083
:10149000620047001010B800801F780047FF070067
:1014A0002F00B100CF80DE000081EB00590607005D
:1014B0003233230033F72300BD0607003E019000BE
:1014C000CE01900073030700300798004107980091
:1014D0001E0090008000EB000001EB004D060700AD
:1014E0000200200003092400B1060700CE07070010
:1014F000801F780031FF07002F00B100CF80DE0091
:101500000081EB0043060700D2CC2C00C3E423008B
:10151000A70607003E019000CE0190005D03070082
:10152000C1070700200798006002470014007800F8
:101530004101DD0000C020000201400064004700BE
:10154000100078000009780010002000140A400004
:1015500068005700104178006040510009003A00CF
:1015600060024700140078004101DD0000C0200047
:101570000201400000002000000978001000200057
:10158000140A40008A090400000000000080FA00EC
:10159000000006000000FA006800570010407800C4
:1015A0000000FB00801F780057FF07002F00B100EC
:1015B0000080FA00000006000200FA006A005700EE
:1015C00010007800000F78004400F800400F200061
:1015D000200288004EB89700AEB897003EB9970039
:1015E000811F780019002000804CDD0013002000CE
:1015F00002047800800678008904D100424EDD00A4
:10160000010578000302E9000480080016000000CC
:101610008A0546004218DD000902E900048008003E
:101620000F0000004620C3003B025200DF35C1001E
:10163000080440001381C200AB825200264DC50051
:101640003E85C400BB00CD00BB80CD003A00CA007F
:101650002A80CA000700C9000580C900BA00CD0071
:10166000BA80CD000A054600020478008301D0004C
:101670008D06E900E0FF3C004F0078004400F900CF
:101680000080FA00000006000000FA004EB8970043
:10169000BEB897004600F8005000F8000220200075
:1016A0003202880002002800130020008019DD00AB
:1016B0000281710082028800010078000101780037
:1016C00026002000470020008301E9000380080075
:1016D000070000000110E100040034001102BE0008
:1016E00092087800E2307B000489BE0087804000C9
:1016F000121978005000F9004600F9000080FA0045
:10170000000006000400FA00600247006A0157006A
:1017100032007800A2007800001A780001127800E8
:10172000620042001001780000F82700000061000C
:10173000C701DE00E20720002EB8970002885100A2
:10174000E201420000F023001301680000F82700C6
:10175000000061009309680034007800A40078005C
:101760000080FA00000006000400FA00E0014700D3
:101770006A01570032007800A200780080197800D2
:1017800081117800628041001001780000F8270084
:10179000000061004701DE006C00570010014100AD
:1017A00022BF9F006000510003003D0000002000A8
:1017B0000100200023003700F30F20006C015700C8
:1017C00012801100130034006A01570032007800C3
:1017D000A20078000200200003002000AA020700F7
:1017E0000000E0000200350000002000010037008A
:1017F000100020000000E00003003200F0FF2F0086
:10180000F1F72F000F003700F0FF2F00F1F727004E
:101810000C00370060004700E20140006C005700F8
:10182000100078004700DD001301680000F8270071
:1018300000006100930968006001470032007800F1
:10184000A20078000080FA00000006000E00FA00F6
:101850006A01570032007800A200780002002000E0
:1018600003002000880207000000E00002003400AE
:101870000000200001003700100020000000E00000
:101880000300320000002000010020006F0037003C
:101890006A01570032007800A2007800000F78003B
:1018A000110798000200780030017800A00178004C
:1018B0000000200001F823005E0307000000E000A4
:1018C00002003C0000002000010037001000200052
:1018D0000000E000070032001E0178009E01900029
:1018E0000000200001F8230039060700000F7800EF
:1018F000110798006A004700801F780060004700C9
:10190000B01F7800A01F78007EFF07006F00B100B5
:10191000000F7800110798006A0147001201780053
:101920004191DE00821F7800801F7800811F7800BF
:101930008DFF07006F00B100000F780011079800BD
:101940006A00570030017800A001780000002000F4
:1019500001F82300370307000000E00002003C000C
:101960000000200001003700100020000000E0000F
:10197000070032001E0178009E0190000000200048
:1019800001F8230012060700000F780011079800E5
:1019900040012000400798001E0178009E01900041
:1019A0003EB89700CEB897000906070060024700CE
:1019B0006407980034017800A4017800350207001C
:1019C0000200200003002400010607002007980001
:1019D0003107980000027800810278006E009000C4
:1019E0000001780032007800A2007800040178003D
:1019F00085017800240207000000E00002003200A8
:101A00000000200001003700100020000000E0006E
:101A100002003200220D04000000000064014700B3
:101A200032007800A2007800000F780011079800BB
:101A300068004700100078006101500042079800DC
:101A4000D5FF3A001E0078009E0090000080FA004A
:101A5000000006001200FA006401470000002000A8
:101A60000049780000C02000801F780040A22A00B2
:101A7000801F780070002000801F7800CEFE0700D5
:101A80006F00B10000C02000801F780070002000AF
:101A9000801F7800FCFE07004F00B100000020000E
:101AA00040079800000020003007980066004700BB
:101AB0001002780002102000020052003E003100A7
:101AC00066004700100078004101DD0000C02000E2
:101AD00002004000901F7800240507002F00B1008D
:101AE000000F78001107980066004700100078008A
:101AF00061004000300798004101DD0000C0200077
:101B000002004000901F7800180507002F00B10068
:101B1000500798006107980068004700000F980080
:101B2000100078004101DD0000E2200002004000CA
:101B3000700798001E0078009E0090001E0178003B
:101B40009E0190001A0507005E019000EE019000D2
:101B50005007980061079800020078008300780021
:101B6000130507005E019000EE019000C901070017
:101B7000801F7800811F780034FF07004F00B100FC
:101B800002002000832C2400090507002606070018
:101B90007E01900000097800120020000E089000DD
:101BA00010084100120020006600470010084100A4
:101BB000560D0400000000000071800040079800EE
:101BC000100020003007980004082000660147003C
:101BD0001200120019003100660047001000780062
:101BE0004101DD0000E22000020040001002780008
:101BF00068014700120052000B00360066024700E1
:101C0000140078004101DD0000E2200002014000E4
:101C10001200780040079800640147000400780033
:101C2000104078000049780012002000660047004C
:101C300010084100E40D0400000000004E40900038
:101C40000080FB008000EB000001EB007104070046
:101C50003233230033FF2300D5040700F2050700C9
:101C600064014700004978000080FA000000060087
:101C70000200FA00E00047000000200080487800E1
:101C800060004700104178000281FB00E800570027
:101C9000110051000B003100E0B22000801F7800DD
:101CA00010132000801F7800750A07004F00B10054
:101CB000110020006000470010C84000400E0400E2
:101CC000000000000080FA000000060030108000D4
:101CD000FF00600002003200660E040000000000F9
:101CE000210020006020200010887000DE06070020
:101CF000000006000000FA0030108000FF006000C5
:101D0000020032007C0E0400000000008100200070
:101D10006020200010887000D3060700301080007B
:101D2000FF006000020032008E0E04000000000080
:101D30004EB897000000E0000500320001022000CC
:101D40006020200010887000AE0E0400000000002B
:101D5000F1FD2F00602020001088600001012000AC
:101D60006020200010887000BF06070000202000BF
:101D7000104078000080FA00000006000200FA001F
:101D8000A3060700200A2000801F7800A60607008F
:101D90002F00B10068005700104078000080FB0061
:101DA000801F7800A00607002F00B1006A005700CE
:101DB000104078000080FB00801F78009A06070022
:101DC0002F00B100C1FF0700300A2000801F7800FB
:101DD000950607002F00B10010002000801F78003A
:101DE000C4FF07002F00B100E000470080487800E2
:101DF000A906070060004700104078000080FA0044
:101E0000000006000000FA0068005700100178008A
:101E10006000510002003A00000020001A00370064
:101E2000680057001001780060005100090034007C
:101E30004EB89700CF80DE000081EB00F50307006D
:101E400002E72C0083D82300590407007605070019
:101E50000D00370068005700100178006000510045
:101E600009003D004EB89700CF80DE000081EB00F6
:101E7000E803070042872F0093D823004C04070093
:101E800069050700000037000080FA000000060026
:101E90000200FA005E060700200A2000801F78007A
:101EA000610607002F00B10068005700104078005D
:101EB0000080FB00801F78005B0607002F00B10048
:101EC0006A005700104078000080FB00801F7800F7
:101ED000550607002F00B100E00047000000200079
:101EE000804878006000470010417800010320001E
:101EF000014051000F0031006000470010407800A1
:101F00000080FB00C100DD0000E2200081004000F5
:101F100011407800801F7800430607002F00B100B1
:101F2000110020006000470010C84000720F04003C
:101F300000000000580607000080FA0000000600BC
:101F40000E00FA006000470041B22A0005000900B7
:101F50003158780068005700904178003206200020
:101F600002C051002E003A0000002000801F7800BF
:101F700000002000801F780080FF07004F00B100A4
:101F80000080FB00507B880012002000A0F620009B
:101F900010084100E0102200801F7800E0012000BE
:101FA000801F7800B60907004F00B1006A0FF800E3
:101FB00000002000801F780000002000801F7800B3
:101FC0003F0607006F00B10060004700801F7800E7
:101FD00010002000801F780010002000801F780073
:101FE000E10707006F00B10066004700801F78001E
:101FF0006A0FF800C00607004F00B10066004700F6
:10200000801F780060002000801F780010002000F2
:10201000801F7800D40707006F00B1004F00370021
:1020200068005700104178006A4051004B003D00A5
:10203000E0582200801F780080092000801F78006F
:102040008F0907004F00B1000000200060079800D2
:10205000230320006C01470012801100140031009E
:102060006C004700100078004101DD0000E2200014
:1020700002004000901F780062FF07002F00B100AF
:102080006C01470012017800C111DD0002E220005E
:10209000030141000000FB0000097800120020004D
:1020A0006C004700100841002810040000000000E8
:1020B00068005700104178000201FB002003200057
:1020C0000010B800801F7800507B8000801F7800CF
:1020D0006FFF07004F00B100E0582200801F78001A
:1020E00080092000801F7800650907004F00B100BB
:1020F00068005700104078000000FB004101DD003F
:1021000000F2200002004000901F78000003200031
:10211000801F7800507B8000801F7800E805070052
:102120006F00B10068005700104078000000FB000D
:10213000610040004101DD0000F22000020040008B
:10214000901F780010032000801F7800507B8000D3
:10215000801F7800DA0507006F00B1000080FA00E8
:10216000000006000800FA00000020001007980098
:1021700000002000000F7800600047009000780009
:10218000798050000C00310060004700100078009A
:10219000C100DD0040F3200081004000000020006D
:1021A000800878001100200060004700108840007F
:1021B000BC100400000000001260800001C020007C
:1021C000640047001108510010002000000F780043
:1021D000E20F2000E000470011001100280031004C
:1021E000E00147001300780061004000C100DD00FD
:1021F00000C02000010140000300780010007800BA
:10220000C100DD0000C02000010040009000780007
:1022100066004700128810006400470090007800B4
:10222000608050000E003D0066004700900078007E
:10223000608050000A0034006201470012007800FC
:10224000C100DD0040F32000810040006000470035
:1022500010007800E1084000100020001209400042
:102260006600470010007800200798001100200049
:102270006000470010884000E810040000000000E3
:102280000080FA000000060014002000B5000700DE
:1022900000000600889FBE008A9FBE008C1F780049
:1022A00059000700600033006450E1004F00320025
:1022B0006420E1005200320003826C0007003B0002
:1022C0000905D0000306D000820F54000C065D0003
:1022D000020039000200320089017800030678000C
:1022E0008582550004003D000003FD008103FD00D0
:1022F0008502EA008B854200840F720002003B00D9
:1023000060001000E08018006011B8000005EB00CC
:102310007A28E1000A00390006007800C75DDD0078
:10232000F707B200878075002D00370082817100A9
:102330000A017800610560008180D1000080D3002F
:102340008502E900F9FF3B0006044000878448004D
:1023500002003B0060041400E0841C000988A30014
:10236000070032008A81710082817100610164007E
:102370008904D1000884D3008B05E80017003700DA
:102380000978A30013003A000B00E00013003400AA
:102390008B05E9000804440089844C000A44740059
:1023A0000978A3000D003A000B00E000070034009C
:1023B0008B05E9000804440089844C0001003A00C0
:1023C0000B0020000978A300F7FF32000001EB00AA
:1023D00002003700828171000A01780022000700A4
:1023E0000CF0A70001F0A000180037006420E10005
:1023F00002003A00838F6C00180033000801BE0011
:102400000200BE00110037000004BE003C000700BF
:102410000003BE000405BE000200BE003800070035
:10242000844F7500000006000200BE006450E10009
:10243000050036006420E100020036000968A300B0
:1024400001003A000800BE000160A0004F067800BD
:102450004F05BE004F04BE0000000600F0FF2F0035
:10246000F1FF2700F9FF370081002000618055004F
:102470000B003D000B00200061FE2F000100E10079
:102480001D00340082817100610164008904D10063
:102490000884D3000000E800FAFF3A007100200031
:1024A0006100640003007000020060000900320057
:1024B00061044400E0844C000988A5000500320056
:1024C0008B05E8006808E10002003A008904D100A9
:1024D0000884D300F20F20000258E10005003D00FF
:1024E000C75DDD00F907B20089807500080078003B
:1024F000000006000BF827008B00780000000500A4
:10250000C70ADE00F107B200F50FB2000800320082
:10251000E1CF4200020032000170A000240005005B
:10252000810F70000100320004080500440005001E
:10253000810F700002003A00140005008502E900D6
:102540000000400081C04800FCFF3B000170A0007B
:10255000240005000000060003F0A2004DFF070064
:1025600000000600841F7800140007004F00780068
:1025700011003300F0FF2F00838F6C0006003B003A
:10258000040565000A00A7000800370009F0A6004E
:102590001000200008003700820F5400838F5C0079
:1025A000030039001000200001003E000000200060
:1025B00009F0A7000000EA00000006000004BE00C9
:1025C000060007000003BE000405BE000200BE00B6
:1025D00002000700844F750000000600C70ADE00F5
:1025E000F107B200F50FB20008003200E1CF42005F
:1025F000020032000170A00024000500810F70006D
:10260000010032000408050044000500810F70003D
:1026100002003A00140005008502E90000004000B5
:1026200081C04800FCFF3B000170A00024000500B1
:1026300000000600F4FF2F00CAFF0700000006009C
:102640000E00FA00A099290091E12300000F780004
:10265000110798006A005700104178000201FB0042
:1026600068005700104078000000FB000000510097
:1026700050079800200798004EF097000000FB00DC
:10268000CF80DE000081EB00E201070030079800F8
:1026900041079800A299290093E123004402070012
:1026A0003E019000CE019000FAFE070002002000DB
:1026B000030024003E0207005E01900030079800EE
:1026C00041079800020078008000EB000001EB0059
:1026D000D001070000017800810178003E009000E1
:1026E000CE009000E8FE07000000E0000200350088
:1026F0000000200001003700100020000000E00072
:102700000200320000002000750037004EF09700F4
:102710000000FB00CF80DE000081EB00BD01070060
:1027200050079800610798001E0178009E019000F4
:102730001F02070030079800410798005E009000D4
:10274000EE009000821F7800831F78003E01900009
:10275000CE01900080FF07004F01BE0030079800B7
:10276000410798002E0090008000EB000001EB0074
:10277000A801070000017800810178003E00900068
:10278000CE009000C0FE07000000E0000200340010
:102790000000200001003700100020000000E000D1
:1027A0004E0032004EF097000000FB00CF80DE00AC
:1027B0000081EB009701070030079800410798005F
:1027C0001E0178009E019000F90107003E01900073
:1027D000CE019000AFFE0700300798004107980037
:1027E0002E0090008000EB000001EB008901070043
:1027F00000017800810178003E009000CE0090003A
:102800008CFF07000000E00002003D0000002000F7
:1028100001003700100020000000E000020032003C
:10282000200020002E0037004EF097000000FB0033
:10283000CF80DE000081EB00760107005007980092
:10284000610798001E0178009E019000D8010700E2
:1028500030079800410798005E009000EE0090005D
:10286000821F7800831F78003E019000CE01900007
:1028700039FF07004F01BE000200200003002400C2
:10288000CB01070030079800410798002E00900008
:102890008000EB000001EB005E0107000001780002
:1028A000810178003E009000CE00900076FE070087
:1028B0000000E000020034000000200001003700AA
:1028C000100020000000E000020032004000200064
:1028D0000300370030002000010037000000200016
:1028E0000080FA00000006000800FA00E00147003E
:1028F0000000200080497800E1014700000020002E
:1029000080497800E20147000000200080497800FB
:10291000000020002007980004082000E401470080
:10292000130012000C003100640047001000780012
:10293000C101DD0000E22000830140000000200012
:1029400080097800130020006400470010884100CF
:102950008C14040000000000610047001040780063
:102960000000FB00C101DD0040F320000300400037
:1029700090017800608051000500320013002000B3
:102980006100470010C84100AC14040000000000C2
:102990001000200020079800620047009041780056
:1029A00064C0510009003400610047001040780005
:1029B0000000FB0063025000E40147001300120016
:1029C00002003E006216040000000000680057008C
:1029D000104078000000FB00801F78006402470070
:1029E0001400780062004000C101DD0040F32000C7
:1029F0008301400013407800801F780004007800B5
:102A000010007800C101DD0040F320008301400088
:102A100013407800801F780009FF07006F00B100A5
:102A2000E3014700804978008041780062C051008E
:102A300042003A006402470014007800C101DD0042
:102A400040F320008301400013007800C101DD0045
:102A500000C02000830240000400780010007800CD
:102A600061004000C101DD0040F32000830140000F
:102A700013007800C101DD0000C020000302400007
:102A800095017800148051000300340013002000E9
:102A90006400470010884100E0014700000020006A
:102AA000804978006000470010427800E801570034
:102AB0001340520019003D00E00247001540780025
:102AC0000000FB00C101DD0000E220000302400025
:102AD0006400470010007800C101DD0040F32000D1
:102AE0008301400005007800104078000000FB00E2
:102AF00013004000C101DD0000C020008301400040
:102B000013007800140A4000130020006000470002
:102B100010C84100521504000000000013002000FE
:102B20006200470010C84100130020006400470005
:102B3000108841005E16040000000000630047009A
:102B40009041780063C051002C003A00130020002F
:102B50006400470010884100E001470000002000A9
:102B6000804978006000470010427800E801570073
:102B70001340520019003D00E00247001540780064
:102B80000000FB00C101DD0000E220000302400064
:102B90006400470010007800C101DD0040F3200010
:102BA0008301400005007800104078000000FB0021
:102BB00013004000C101DD0000C02000830140007F
:102BC00013007800140A4000130020006000470042
:102BD00010C84100B21504000000000013002000DE
:102BE0006200470010C84100130020006400470045
:102BF000108841005E1604000000000063004700DA
:102C00009041780064C0510029003A00E00147007B
:102C100000002000804978006000470010427800E2
:102C2000E80157001340520019003D00E002470040
:102C3000154078000000FB00C101DD0000E220002B
:102C4000030240006400470010007800C101DD006D
:102C500040F3200083014000050078001040780018
:102C60000000FB0013004000C101DD0000C0200097
:102C70008301400013007800140A40001300200074
:102C80006000470010C841000C160400000000005E
:102C9000130020006400470010884100130020004A
:102CA0006200470010C841005E16040000000000EA
:102CB000130020006400470010884100CC14040079
:102CC0000000000000002000200798006800570066
:102CD000104278000402FB00E401470013001200D8
:102CE000130031006400470010007800C101DD00CE
:102CF00000E22000030040003007980090017800B7
:102D000062004700104178000201FB001100090039
:102D10008201D800BE0190008009780013002000D5
:102D2000640047001088410066160400000000009F
:102D300062004700104078000080FA0000000600A2
:102D40000200FA0000002000000F78006800570021
:102D5000904078008100FB006000470061884000DF
:102D60006A005700104078000000FB00610150002D
:102D7000E00047001100110023003D006001470002
:102D800012007800C100DD0000E220008101400057
:102D9000020078001000780061005000C100DD00E2
:102DA00000E22000010140009300780012805000F2
:102DB000100034006001470012007800C100DD00FF
:102DC00000E220008101400002007800100078003D
:102DD00061004000C100DD0000E220000101400070
:102DE0009300780012805000020034001E407800EA
:102DF00006003700110020006000470010884000E6
:102E0000B016040000000000000020000080FA005E
:102E1000000006000200E00006003A000005EB009A
:102E20000100E0000F003E000000E000270032003B
:102E30000C003700010578000100E00004003500B7
:102E400008003C000000E0002000320005003700D0
:102E500060001000E080180002003B0001F02C0030
:102E60001A0037000004BE006011B8006B09200092
:102E70000982CF00020039000882CF000441B0006F
:102E8000694252000E00320008003B00828171004E
:102E9000610164008904D1000884D3008B05E80037
:102EA0000442E800F9FF3A00050037000804440036
:102EB00089844C008B05E9000442E900FBFF3A00DD
:102EC000030007000AF0A70001F0A00000000600C0
:102ED00081002000618055000B003D000B002000A8
:102EE00061FE2F000100E1001D00340082817100AD
:102EF000610164008904D1000884D3000000E80067
:102F0000FAFF3A00710020006100640003007000C5
:102F1000020060000900320061044400E0844C00BB
:102F20000988A500050032008B05E8006808E1006B
:102F300002003A008904D1000884D300F20F200077
:102F40000258E10005003D00C75DDD00F907B20051
:102F50008980750008007800000006000BF8270043
:102F60008B00780000000500000006000000FA0059
:102F700068005700100178006000510003003D0018
:102F80006801570012007800600910004EB89700E1
:102F9000CF80DE000081EB009EFF070002002000D2
:102FA000037024008A0007000080FA000000060079
:102FB000889FBE008A9FBE008C1F780030000700EB
:102FC0003700330003866C006450E10024003200B7
:102FD0006420E100270032006150E100220032004D
:102FE0006120E100210032008B854200EB07B10037
:102FF0000134B800003AB8000804420089844A004D
:10300000013AB8000030B8008880400009014A0049
:1030100004003300000040008180480002014900A4
:103020008B05E900C909DD00830170000100320051
:1030300013002000C814DE004814DD004709DE003C
:103040001200B200C808DE000884700024000700E7
:1030500001F0A1000CF0A70001F0A000190037005A
:103060006120E1001B0032000801BE000200BE002A
:10307000F7FF37006150E100FCFF3A001500370010
:103080000004BE003C0007000003BE000405BE00B3
:103090000200BE0038000700844F750000000600E3
:1030A0000200BE006450E100050036006420E1002B
:1030B000020036000968A30001003A000800BE00C3
:1030C0000160A0004F0678004F05BE004F04BE000F
:1030D00000000600F0FF2F00F1FF2700F9FF370086
:1030E00081002000618055000B003D000B00200096
:1030F00061FE2F000100E1001D003400828171009B
:10310000610164008904D1000884D3000000E80054
:10311000FAFF3A00710020006100640003007000B3
:10312000020060000900320061044400E0844C00A9
:103130000988A500050032008B05E8006808E10059
:1031400002003A008904D1000884D300F20F200065
:103150000258E10005003D00C75DDD00F907B2003F
:103160008980750008007800000006000BF8270031
:103170008B00780000000500C70ADE00F107B200EE
:10318000F50FB20008003200E1CF42000200320029
:103190000170A00024000500810F700001003200C2
:1031A0000408050044000500810F700002003A0089
:1031B000140005008502E9000000400081C04800BD
:1031C000FCFF3B000170A000240005000000060089
:1031D000889FBE008A9FBE008C1F78003E000700BB
:1031E0004500330003866C006450E1002E0032007D
:1031F0006420E100330032006150E1002F00320012
:103200006120E1003100320085855500EB07B000F8
:1032100009002000080420000500370008044400CD
:1032200089844C000A0031000603430087834B0069
:103230000001530081815B00F8FF33000203BE00F0
:103240000800A0000804440089844C00F6FF3900FF
:10325000C639DD0083017300010032001300200035
:103260008904D1000884D3000998A3000500320026
:103270000800A7000300A0008904D1000884D3003F
:103280008B05E8008904D1000884D3000001EB001D
:103290000281D2002800070001F0A1000CF0A70075
:1032A00001F0A0001D0037006420E1001F00320083
:1032B0000801BE000200BE00F7FF37006120E100F8
:1032C0001A0032006000B800F3FF37000000200051
:1032D00001F82700F0FF37000004BE003C000700A3
:1032E0000003BE000405BE000200BE003800070057
:1032F000844F7500000006000200BE006450E1002B
:10330000050036006420E100020036000968A300D1
:1033100001003A000800BE000160A0004F067800DE
:103320004F05BE004F04BE0000000600F0FF2F0056
:10333000F1FF2700F9FF3700810020006180550070
:103340000B003D000B00200061FE2F000100E1009A
:103350001D00340082817100610164008904D10084
:103360000884D3000000E800FAFF3A007100200052
:103370006100640003007000020060000900320078
:1033800061044400E0844C000988A5000500320077
:103390008B05E8006808E10002003A008904D100CA
:1033A0000884D300F20F20000258E10005003D0020
:1033B000C75DDD00F907B20089807500080078005C
:1033C000000006000BF827008B00780000000500C5
:1033D000C70ADE00F107B200F50FB20008003200A4
:1033E000E1CF4200020032000170A000240005007D
:1033F000810F700001003200040805004400050040
:10340000810F700002003A00140005008502E900F7
:103410000000400081C04800FCFF3B000170A0009C
:1034200024000500000006000001BE001F00070088
:103430000470A70003F0A1006509B1001600320076
:103440000D0035006828E10006003500F0FF2F0070
:10345000F1FF27000300E00013003B0001002800FB
:103460000000050000004000818048008502E9005E
:10347000FCFF3A0008003700F88F420002003C00D1
:103480008000EB00000005008100D1000080D30027
:103490008502E800FCFF3A000300E00002003B0068
:1034A00060001000E080180000000600C70ADE007F
:1034B000F107B200F50FB20008003200E1CF420080
:1034C000020032000170A00024000500810F70008E
:1034D000010032000408050044000500810F70005F
:1034E00002003A00140005008502E90000004000D7
:1034F00081C04800FCFF3B000170A00024000500D3
:10350000000006000E00FA000000200020079800CE
:1035100000002000400798006001470000002000E4
:1035200000497800600047009041780002082000C0
:1035300002C051000D0031006000470010407800CB
:103540000000FB004101DD0000E22000020140001C
:1035500000002000000978001200200060004700F1
:1035600010484100921A040000000000FDFA070014
:103570006A005700104178000201FB00401F200044
:10358000110009000200D8006101470000497800DD
:10359000801F7800D4FC07002F00B10061004700B5
:1035A000104078000000FB00801F78000000200021
:1035B000801F7800E2FD07004F00B1000000FB0013
:1035C0001007980061004700104078000000FB00E1
:1035D000801F78006200470010007800801F78008C
:1035E000D7FD07004F00B1000000FB002007980046
:1035F0006400470010017800600051004000360070
:1036000062004700100078004101DD0000E2200068
:103610008201400061004700104078000000FB007C
:10362000610050004101DD0000E220000200400086
:103630001002780093011200640047001000780027
:103640004101DD0000E22000020140006800470067
:1036500012081200831F780044FE07002F00B100FB
:10366000500798006107980068004700901F780095
:103670003EFE07002F00B10002002000832C240032
:103680004BFE07005E019000EE019000D0FE0700A7
:1036900065FF07006401470092017800620147005E
:1036A000E6024700928A51006802570014417800F0
:1036B0000201FB00C111DD0002F220000301410004
:1036C0000009780004007800104078006140400054
:1036D000004A78000000FB004101DD0000F22000FC
:1036E0000201400005007800100078000009780011
:1036F00010002000144A4000C01B0400000000001D
:1037000062004700100078004101DD0000E2200067
:103710008201400061004700104078000000FB007B
:10372000610050004101DD0000E220000201400084
:103730001200780013081000E801570013407800C9
:103740000000FB004101DD0000F22000020040000B
:103750000300780010407800614040008049780004
:103760000000FB004101DD0000F2200002014000EA
:10377000000020000009780010002000934940005C
:103780000080FA00000006000200FA00100020008D
:10379000000F78001E0078000000E0001A003200E0
:1037A00030108000E1006000301080006400600094
:1037B0004200DE00808070003010800068006000F1
:1037C0004300DE00808070003010800070006000D8
:1037D0004400DE00808070003010800062006000D5
:1037E0004100DE00008170004110800000002400D4
:1037F00000806000CE00DE0060004700010871001C
:10380000CA1B0400000000000080FA00000006004F
:10381000DDFF0700110020006020200010887000EC
:1038200011000700000006000000FA00212020001F
:103830006800570090487800411080000008200080
:1038400000806000C700DE000100E00002003200DE
:1038500010002000020037000300070000002000D5
:103860000080FA000000060021048000000024000F
:1038700000806000CE00DE006080500002003A0050
:10388000341C040000000000F1FF2B004008200061
:10389000108860000000060030108000FF0060000B
:1038A000020032004C1C0400000000004100200017
:1038B0006020200010887000EBFF07000000060069
:1038C0000000FA00D2FF0700200A2000801F7800C5
:1038D000D5FF07002F00B1006800570010407800A6
:1038E0000080FB00801F7800CFFF07002F00B10091
:1038F0006A005700104078000080FB00801F7800AD
:10390000C9FF07002F00B1006C00570010007800BD
:10391000801F7800C4FF07002F00B100DEFF070002
:103920000080FA0000000600D0002000801F780010
:10393000060007002F00B100A0002000801F7800C3
:10394000020007002F00B100000006000000FA008E
:10395000014020008021200010887000680057007E
:1039600010007800D010880060192200801F7800B5
:1039700010002000801F7800410307004F00B100B5
:103980000080FA00000006000200FA00E000470094
:1039900000002000804878006000470090407800D8
:1039A0008180FB0068005700108040009040780044
:1039B00060C050000F003200600047009040780067
:1039C0008180FB00680057001080400010407800A4
:1039D0000080FB00801F7800DCFF07002F00B10093
:1039E000110020006000470010C84000CC1C0400FB
:1039F000000000000080FA00000006000600FA0047
:103A0000E002470000002000804A78006000470084
:103A10009042780065C052000C0031006000470001
:103A2000904278008582FB006A0057009082420035
:103A300000022000804A7800150020006000470046
:103A400010C84200061D040000000000600347008B
:103A5000964278008582FB006A00570090824200FF
:103A600000002000804A780010002000164B100053
:103A700060004700904278008582FB006A00570092
:103A80001080420020079800680057001007980037
:103A900090027800A2002000110009008282D80064
:103AA0000100780006032000AE029000864A400024
:103AB0002E0090001E00900090027800A2002000CE
:103AC000110009008282D80040BF9F00E002500030
:103AD00002003A00781D04000000000015002000DC
:103AE0006000470010C81200381D040000000000EC
:103AF0000080FA00000006000600FA000000200026
:103B000010079800E800570011007800200798007F
:103B100001007800900078006080500006003D00B1
:103B200010002000100798006800570090007800EF
:103B300064004700608810006A005700901F7800FA
:103B400064004700901F7800ACFF07004F00B100F1
:103B500060002000000F78006000470090007800AF
:103B6000608050000E0036006A0257001400780092
:103B7000E0014700130140000300780010007800C6
:103B8000E1005000040078001080400010497800E7
:103B90001000200093091000AC1D0400000000007C
:103BA000BEB8970000022000804878001E009000F8
:103BB0000000E0001700320000002000000F780035
:103BC0006A005700900078006000470010804000B5
:103BD00010417800010220000140510005003A0028
:103BE000110020006000470010884000E01D040024
:103BF000000000006000470010007800E100500065
:103C0000010F78006A00570090804000D002200029
:103C1000804878000080FA000000060003000900D8
:103C200000000000000006008170800060708000CD
:103C300091087000F9FF0700607080008080EA0042
:103C40008070800010886000F4FF0700000006000C
:103C5000A0B52200801F780010002000801F78008F
:103C6000870207004F00B10000000600800E200010
:103C7000801F780000002000801F7800800207006D
:103C80004F00B100000006000000FA006801570074
:103C900002007800104078000080FB00307B880034
:103CA00041708000A0E0200090807000C0E0200003
:103CB000108070008080EA008070800010886000B2
:103CC0000170800020E020009080700040E0200023
:103CD0009080700060E02000108070008080EA001A
:103CE00070708000108860000200780090407800BA
:103CF0008180FB000008200080806000030032000B
:103D0000717080000070800091087000680057009A
:103D1000904078008180FB000004200080806000DB
:103D200003003200717080001070800091087000F4
:103D300068005700904078008180FB00000220005E
:103D4000808060000300320071708000207080006D
:103D50009108700068005700104078000080FB0058
:103D6000F00060000300320071708000307080004D
:103D700091087000907080000000E00006003200A2
:103D8000407080008080EA008070800010886000B1
:103D9000D21E04000000000081708000407080008E
:103DA00091087000A0FF070041708000A0E0200093
:103DB00090807000C0E02000108070008080EA00D9
:103DC00080708000108860000170800020E020007A
:103DD0009080700040E020009080700060E0200043
:103DE000108070008080EA00707080001088600091
:103DF00068005700104078000080FB00E800600079
:103E00000300320071708000007080009108700023
:103E100068005700104078000080FB00E40060005C
:103E200003003200717080001070800091087000F3
:103E300068005700104078000080FB00E20060003E
:103E400003003200717080002070800091087000C3
:103E500068005700104078000080FB00E10060001F
:103E60000300320071708000307080009108700093
:103E7000907080000000E00006003200407080007A
:103E80008080EA008070800010886000501F04006D
:103E90000000000081708000407080009108700078
:103EA00061FF0700907080000000E0000300320016
:103EB00067FF0700601F0400000000006BFF0700A1
:103EC0000080FA00000006000000FA000000200058
:103ED0009070880068005700104078000080FB0058
:103EE000801F780068FF07002F00B100100020003D
:103EF000907088000080FA00000006000200FA00BE
:103F0000E000470000002000804878006000470083
:103F1000904078008180FB0068005700908040004E
:103F20001104E0000E00320060004700904078006D
:103F30008180FB00680057009080400011407800AD
:103F4000801F7800E0FF07002F00B1001100200063
:103F50006000470010C84000861F040000000000F9
:103F60000080FA00000006000000FA00EC1F0400C8
:103F700000000000E800570000082000804878009A
:103F80001020040000000000E8005700000C200092
:103F9000804878001020040000000000E80057006E
:103FA0004009200080487800102004000000000034
:103FB000E8005700400D20008048780010200400E1
:103FC00000000000E800570000082000804878004A
:103FD00010200400000000006800570090407800A6
:103FE00061C05000E3FF3200680057009040780045
:103FF00062C05000E4FF3200680057009040780033
:1040000063C05000E5FF3200680057009040780020
:1040100064C05000E6FF3200E21F04000000000010
:104020006A005700104078000080FB0061015000DA
:10403000E8005700114078000080FB0002004000BB
:1040400080487800801F78000FFF07002F00B10024
:104050006C005700901F7800A8FF07002F00B100E8
:104060000080FA00000006000600FA0000002000B0
:10407000000F7800600047009002780063805200D3
:104080000B003D006A005700900278006000470076
:104090009082420000022000804A78001500200033
:1040A00060004700108842003A2004000000000031
:1040B0006A00570010007800600347009602400035
:1040C00000002000804A780010002000160B10002D
:1040D0006A0057009002780060004700108042009C
:1040E0002007980068005700100798009042780059
:1040F0008582FB00A2002000110009008282D80006
:104100000100780006032000AE029000864A4000BD
:104110002E0090001E009000904278008582FB00E7
:10412000A2002000110009008282D8009E029000A7
:10413000804A78008042780060C0520002003A0055
:10414000AE200400000000001500200060004700C1
:104150001088120068200400000000000080FA00AF
:10416000000006000600FA0000002000100798007A
:10417000E800570001007800104078000000FB00C4
:1041800020079800010078009040780060C050003F
:1041900008003D0011002000620047001088400028
:1041A00068005700904078008100FB0064004700E1
:1041B000608810006A005700901F78006400470074
:1041C00010007800801F7800A7FF07004F00B100A3
:1041D00040002000000F7800600047009000780049
:1041E000608050000E0036006A025700140078000C
:1041F000E001470013014000030078001000780040
:10420000E100500004007800108040001049780060
:104210001000200093091000EC20040000000000B2
:10422000BEB8970000022000804878001E00900071
:104230000000E0001700320000002000000F7800AE
:104240006A0057009000780060004700108040002E
:1042500010417800010220000140510005003A00A1
:104260001100200060004700108840002021040059
:10427000000000006000470010007800E1005000DE
:10428000010F78006A00570090804000D0022000A3
:10429000804878000080FA00000006003C00FA0028
:1042A00060004700A1B22A000800090031587800D8
:1042B0006900470031B32A0008000900315878002E
:1042C00072004700C1B32A00070009003158780086
:1042D0007A00470041B42A000600090031587800EE
:1042E0001002200000004700B1B42A0007000900B6
:1042F00031587800900220000000470031B52A00B4
:10430000070009003158780010002000801F780055
:104310005DFE07002F00B100680057009040780054
:1043200060C0500030003A00100320000000470039
:10433000801F7800200FF800EFFD07004F00B1004C
:1043400060004700801F780010002000801F780068
:1043500010002000801F780003FF07006F00B100ED
:104360001003200000004700801F7800800020001C
:10437000801F780010002000801F7800FAFE0700E0
:104380006F00B1001003200000004700801F78007C
:10439000220FF800D8FD07004F00B1006900470068
:1043A000801F780010002000801F7800200020006F
:1043B000801F7800ECFE07006F00B10010032000A2
:1043C00000004700801F780080002000801F7800D8
:1043D00020002000801F7800E3FE07006F00B1007E
:1043E0003C23040000000000680057009040780063
:1043F00065C0500037003A0010032000000047005D
:10440000801F78006A0FF800BBFD07004F00B10065
:104410007003200000004700801F780080F6200015
:10442000104078000000FB00801F78004DFF07005F
:104430004F00B10010002000801F780012FE07001E
:104440002F00B10072004700801F7800100020008C
:10445000801F780010002000801F7800C2FE070037
:104460006F00B1001003200000004700801F78009B
:10447000A0002000801F780010002000801F78001E
:10448000B9FE07006F00B1007A004700801F780076
:1044900010002000801F780020002000801F78007E
:1044A000B1FE07006F00B10070032000000047005C
:1044B000801F780080002000801F780020002000EE
:1044C000801F7800A8FE07006F00B1003C230400A5
:1044D00000000000680057009040780060C0500065
:1044E00065003400680057009040780065C05000B7
:1044F00061003D001003200000004700801F78008D
:1045000068005700104078000000FB00C100DD008B
:1045100000F2200001004000901F780076FD0700A7
:104520004F00B1007003200000004700801F78009A
:1045300068005700104078000000FB00801F7800E2
:1045400008FF07004F00B1001002200000004700E4
:10455000801F780010002000801F780010002000CD
:10456000801F780080FE07006F00B10070032000FC
:1045700000004700801F780030002000801F780076
:1045800010002000801F780077FE07006F00B10048
:104590001003200000004700801F7800A0002000CA
:1045A000801F780010002000801F78006EFE07003A
:1045B0006F00B1001003200000004700801F78004A
:1045C00068005700104078000000FB0061004000C8
:1045D000C100DD0000F2200001004000901F7800C3
:1045E00045FD07004F00B1007003200000004700A8
:1045F000801F780068005700104078000000FB0022
:10460000801F7800D7FE07004F00B1009002200005
:1046100000004700801F780010002000801F7800F5
:1046200020002000801F78004FFE07006F00B100BF
:104630007003200000004700801F78003000200039
:10464000801F780020002000801F780046FE0700B1
:104650006F00B1001003200000004700801F7800A9
:10466000A0002000801F780020002000801F78001C
:104670003DFE07006F00B1000080FA000000060058
:104680000000FA004EB89700BEB897000000E000A6
:1046900004003200FA3F0900000000000000E900B9
:1046A000FAFF370001800900000000000080FA00D6
:1046B000000006000F802000E0BF200000018800FD
:1046C0004440A80000002000A001880080F62000DF
:1046D00001C62A0003000900315878001001FA00D1
:1046E00060004700B1B52A00090009003158780080
:1046F0006A00470051B62A000900090031587800C5
:1047000074004700F1B62A000E0009003158780005
:104710003002200000004700E1B72A000E00090027
:10472000315878002003200000004700D1B82A004B
:104730000E000900315878001004200000004700E6
:10474000C1B92A000E000900315878000005200088
:1047500000004700B1BA2A000E0009003158780065
:10476000F005200000004700A1BB2A000E00090050
:1047700031587800E00620000000470091BC2A0074
:10478000120009003158780010082000000047008E
:10479000C1BD2A00060009003158780080082000B9
:1047A0000000470031BE2A00080009003158780097
:1047B0001009200000004700C1BE2A000E000900B9
:1047C00031587800000A200000004700B1BF2A00DD
:1047D0000C00090031587800D00A20000000470082
:1047E00081C02A000A00090031587800800B20009F
:1047F0000000470031C12A00040009003158780048
:10480000D00B20000000470081C12A0004000900ED
:1048100031587800200C200000004700D1C12A0048
:104820000400090031587800700C20000000470097
:1048300021C22A000D00090031587800500D2000D7
:104840000000470001C32A00100009003158780019
:10485000600E20000000470011C42A000A00090071
:1048600031587800100F200000004700C1C42A0012
:104870000600090031587800800F20000000470032
:1048800031C52A000B000900315878003BF00700C1
:1048900060004700801F780010002000801F780013
:1048A00010002000801F7800AFFD07006F00B100EE
:1048B0006A004700801F780010002000801F7800E9
:1048C00020002000801F7800A7FD07006F00B100C6
:1048D000E0662100801F780020262000801F7800DD
:1048E00067FF07004F00B10074004700801F780089
:1048F00010002000801F780010002000801F78002A
:1049000099FD07006F00B100300220000000470051
:10491000801F780010002000801F780020002000F9
:10492000801F780090FD07006F00B100611020002B
:10493000810047000000200080487800000020002F
:10494000801F780040062000801F780000002000B3
:10495000801F7800402D2000801F780022F0070083
:104960008F00B1000000E0001B003200601020004A
:10497000000047009040780060C0500002003A00FC
:104980007E250400000000006010200000004700A9
:104990009040780061C0500001003A0040F00700EC
:1049A00060102000000047009040780062C0500076
:1049B00001003A0053F10700E0102200801F780048
:1049C000E0012000801F78002DFF07004F00B1009C
:1049D000482404000000000000002000801F780030
:1049E00040062000801F780010002000801F780003
:1049F000402D2000801F7800FBEF07008F00B100E2
:104A00000000E0003B00320062102000020147007D
:104A100012407800E14040000149780063C0500036
:104A200004003A00611020008100470000002000CF
:104A30008048780060102000000047009040780017
:104A400060C0500009003A00200320000000470029
:104A5000801F780010002000801F780010002000C8
:104A6000801F780040FD07006F00B100601020003B
:104A7000000047009040780061C0500009003A00F3
:104A80001004200000004700801F78001000200064
:104A9000801F780010002000801F780032FD070082
:104AA0006F00B100601020000000470090407800C7
:104AB00062C0500009003A000005200000004700D5
:104AC000801F780010002000801F78001000200058
:104AD000801F780024FD07006F00B100E010220065
:104AE000801F7800E0012000801F7800E4FE0700AE
:104AF0004F00B1009E24040000000000F0052000DB
:104B000000004700801F780010002000801F780000
:104B100010002000801F780013FD07006F00B10017
:104B200000002000801F78009AF207002F00B100DB
:104B3000C8F307005110200081004700804878002A
:104B4000E5405000070034005010200000004700EE
:104B50009040780074C0500002003D0036260400EA
:104B60000000000010002000801F780046FC0700B5
:104B70002F00B100E006200000004700801F7800F1
:104B800010002000801F780010002000801F780097
:104B9000F5FC07006F00B10010082000000047007E
:104BA000801F780010002000801F78002000200067
:104BB000801F7800ECFC07006F00B100500020005F
:104BC000801F78002AF407002F00B10082F6200031
:104BD00012407800E14040000149780065C0500073
:104BE00013003A0010002000801F780026FC070008
:104BF0002F00B1008008200000004700801F7800CF
:104C000010002000801F780010002000801F780016
:104C1000D5FC07006F00B10050002000801F780015
:104C200013F407002F00B100482404000000000026
:104C300010002000801F780013FC07002F00B10037
:104C40001009200000004700801F7800100020009D
:104C5000801F780010002000801F7800C2FC070031
:104C60006F00B1009025040000000000100020003B
:104C7000801F780004FC07002F00B10030062000E0
:104C8000801F7800AEF407002F00B1001000200054
:104C9000801F78003FF207002F00B1005010200065
:104CA00000004700104078000000FB00801F7800E3
:104CB00000002000801F780012FA07004F00B100AA
:104CC000E0582200801F780080092000801F7800B3
:104CD0006BFE07004F00B10000002000801F78002D
:104CE00097F407002F00B100E0222000801F780019
:104CF000D0032000801F780061FE07004F00B10044
:104D00005010200000004700104078000000FB0019
:104D1000801F7800F0022000801F7800507B800008
:104D2000801F7800E6FA07006F00B100FEFA070066
:104D3000000A200000004700801F780012FB0700D7
:104D40002F00B100F8FA0700411020008100470051
:104D5000000020008048780040102000000047003C
:104D60001041780021032000014051001F003D0048
:104D70007010200000004700801F780040102000C5
:104D800000004700104078000000FB00C100DD007B
:104D900000E2200001004000901F780056FB070051
:104DA0004F00B1007010200000004700801F780005
:104DB000F5FA07002F00B100DBFA070060192200A6
:104DC000801F780010002000801F78002CFE070054
:104DD0004F00B100110020004010200000004700EB
:104DE00010C84000AC26040000000000D00A2000DB
:104DF00000004700801F7800E3FA07002F00B10091
:104E0000800B200000004700801F78001000200069
:104E1000801F780020002000801F780052FC0700CF
:104E20006F00B10050002000801F780090F3070051
:104E30002F00B100D00B200000004700801F780039
:104E400010002000801F780020002000801F7800C4
:104E500045FC07006F00B10050002000801F780063
:104E600083F307002F00B100200C20000000470052
:104E7000801F780010002000801F78002000200094
:104E8000801F780038FC07006F00B1005000200040
:104E9000801F780076F307002F00B100700C20000F
:104EA00000004700801F780010002000801F78005D
:104EB00020002000801F78002BFC07006F00B1004D
:104EC00090012000801F780069F307002F00B100D7
:104ED00020002000801F7800AEF107002F00B100F5
:104EE0005010200000004700700799001040780023
:104EF0000000FB00801F780020002000801F780049
:104F000080F907004F00B10020002000801F7800CA
:104F10000BF407002F00B100500D200000004700E7
:104F2000801F780010002000801F780020002000E3
:104F3000801F78000CFC07006F00B100900120007A
:104F4000801F78004AF307002F00B10010002000F6
:104F5000801F78008FF107002F00B1005010200053
:104F600000004700104078000000FB00801F780020
:104F700040002000801F780062F907004F00B10058
:104F800040002000801F7800EDF307002F00B100E3
:104F900090012000801F780035F307002F00B1003A
:104FA00020002000801F78007AF107002F00B10058
:104FB0005010200000004700104078000000FB0067
:104FC000801F780060002000801F78004DF90700E6
:104FD0004F00B10060002000801F7800D8F3070068
:104FE0002F00B10090012000801F780020F30700FF
:104FF0002F00B10010002000801F780065F107002D
:105000002F00B10050102000000047001040780031
:105010000000FB00801F780080002000801F7800C7
:1050200038F907004F00B10080002000801F780091
:10503000C3F307002F00B10010002000801F78008C
:1050400011FB07002F00B100600E20000000470098
:10505000801F780010002000801F780010002000C2
:10506000801F7800C0FB07006F00B10041102000D6
:1050700081004700000020008048780081F6200071
:105080007E0091009048780000002000801F78008A
:1050900082FC07002F00B10000002000801F780074
:1050A00040062000801F780000002000801F78004C
:1050B000402D2000801F78004BEE07008F00B100CC
:1050C0000000E0001A0032004210200002014700F8
:1050D00012407800E14040000149780066C050006D
:1050E00004003A0041102000810047000000200029
:1050F00080487800401020000000470010407800F1
:105100000000FB00801F780064FC07002F00B10046
:10511000E0222000801F7800D0032000801F78004C
:1051200057FD07004F00B1003429040000000000C3
:1051300000002000801F780040062000801F7800BB
:1051400010002000801F7800402D2000801F780074
:1051500025EE07008F00B1000000E00042003200A1
:1051600010002000801F7800C7FA07002F00B10050
:10517000100F200000004700801F78001000200062
:10518000801F780010002000801F780076FB070049
:105190006F00B100800F200000004700801F7800E2
:1051A00010002000801F780020002000801F780061
:1051B0006DFB07006F00B10000002000801F780029
:1051C00040062000801F780000002000801F78002B
:1051D000402D2000801F780003EE07008F00B100F3
:1051E0000000E00008003200E0222000801F78006C
:1051F000D0032000801F780021FD07004F00B10080
:10520000482404000000000000002000801F7800F7
:1052100040062000801F780010002000801F7800CA
:10522000402D2000801F7800EFED07008F00B100B7
:105230000000E0000A00320010002000801F78000B
:1052400091FA07002F00B10000002000801F7800B5
:1052500012FC07002F00B1003429040000000000F8
:10526000DC280400000000004C28040000000000BE
:105270000080FA00FFFF3700436FFF006E66FF00FB
:105280006972FF006D61FF003F20FF002020FF00DA
:105290000046FF006F72FF006D61FF007465FF0044
:1052A000616EFF00646FFF002E2EFF000046FF00BE
:1052B000696EFF00616CFF00697AFF006164FF00A6
:1052C0006F20FF002020FF000043FF00616EFF0001
:1052D0006365FF006C61FF00646FFF002020FF002A
:1052E0000046FF006F72FF006D61FF007465FF00F4
:1052F0006172FF002020FF002020FF002000FF003F
:105300005072FF006573FF00696FFF006E65FF005C
:105310002045FF006E74FF006572FF00002DFF0046
:105320002D2DFF002D00FF002D2DFF002D2DFF0046
:105330000045FF006E76FF006961FF006E64FF00AC
:105340006F20FF006461FF00746FFF007300FF00B7
:105350003078FF003030FF000030FF007833FF006E
:105360003200FF003078FF003634FF000030FF00CD
:105370007839FF003600FF003078FF004338FF0027
:105380000044FF006F6EFF00652EFF0000FFFF006E
:105390000000FF002300FF004600FF006900FF003F
:1053A0008B00FF00AE00FF00D000FF00F200FF0006
:1053B0001401FF003501FF005601FF007701FF00D7
:1053C0009701FF00B601FF00D501FF00F401FF00C7
:1053D0001202FF002F02FF004C02FF006802FF00D4
:1053E0008302FF009D02FF00B702FF00CF02FF0013
:1053F000E702FF00FE02FF001403FF002903FF0085
:105400003D03FF005003FF006203FF007303FF0032
:105410008303FF009203FF009F03FF00AC03FF0024
:10542000B703FF00C103FF00CA03FF00D203FF0060
:10543000D903FF00DE03FF00E303FF00E603FF00E4
:10544000E703FF00E803FF00FF7FFF000000FF000D
:10545000D97FFF00B8F9FF00627FFF0074F3FF00FF
:105460009D7EFF0038EDFF008A7DFF0007E7FF000B
:105470002A7CFF00E6E0FF007D7AFF00D8DAFF001B
:105480008578FF00E1D4FF004276FF0004CFFF00E3
:10549000B673FF0046C9FF00E370FF00A9C3FF0019
:1054A000CA6DFF0032BEFF006E6AFF00E3B8FF0066
:1054B000D066FF00C0B3FF00F262FF00CCAEFF0079
:1054C000D75EFF000AAAFF00825AFF007EA5FF00F8
:1054D000F655FF0029A1FF003451FF000E9DFF008B
:1054E000404CFF003099FF001D47FF009295FF00E0
:1054F000CE41FF003692FF00573CFF001D8FFF009A
:10550000BA36FF004A8CFF00FC30FF00BE89FF0066
:105510001F2BFF007B87FF002825FF008385FF00EE
:105520001A1FFF00D683FF00F918FF007682FF00E4
:10553000C812FF006381FF008C0CFF009E80FF00FB
:105540004806FF002780FF000000FF000080FF00EA
:10555000B8F9FF002780FF0074F3FF009E80FF0072
:1055600038EDFF006381FF0007E7FF007682FF0050
:10557000E6E0FF00D683FF00D8DAFF008385FF0056
:10558000E1D4FF007B87FF0004CFFF00BE89FF004E
:1055900046C9FF004A8CFF00A9C3FF001D8FFF0012
:1055A00032BEFF003692FF00E3B8FF009295FF0085
:1055B000C0B3FF003099FF00CCAEFF000E9DFF008E
:1055C0000AAAFF0029A1FF007EA5FF007EA5FF001B
:1055D00029A1FF000AAAFF000E9DFF00CCAEFF002C
:1055E0003099FF00C0B3FF009295FF00E3B8FF00C1
:1055F0003692FF0032BEFF001D8FFF00A9C3FF00DF
:105600004A8CFF0046C9FF00BE89FF0004CFFF009F
:105610007B87FF00E1D4FF008385FF00D8DAFF001D
:10562000D683FF00E6E0FF007682FF0007E7FF0079
:105630006381FF0038EDFF009E80FF0074F3FF00E0
:105640002780FF00B8F9FF004E64FF00523AFF00C8
:105650002000FF005249FF006374FF00726CFF00DE
:105660003A20FF000064FF005463FF007472FF00E3
:105670006C3AFF002000FF004E64FF005265FF00FF
:10568000673AFF002000FF006672FF006571FF00AF
:105690003A20FF000052FF004920FF002020FF00B9
:1056A000203AFF000064FF005420FF002020FF008C
:1056B000203AFF000049FF006E69FF006369FF00A8
:1056C000616EFF00646FFF000041FF007564FF0022
:1056D0006D65FF002032FF002E31FF000049FF0002
:1056E0006E69FF006369FF006172FF002020FF0008
:1056F0002020FF002020FF002000FF005072FF004C
:105700006573FF00696FFF006E65FF002045FF00B5
:105710006E74FF006572FF000049FF006E69FF00B4
:105720006369FF006172FF002020FF002020FF005E
:105730002020FF002000FF00466FFF00726DFF0079
:105740006174FF006561FF007220FF002020FF00F0
:105750002020FF000045FF006E76FF006961FF001A
:105760007220FF004461FF00746FFF007320FF0090
:105770002000FF004361FF007267FF00616EFF00C1
:10578000646FFF002064FF006174FF006F73FF000F
:10579000004EFF006F20FF007365FF002065FF00D3
:1057A0006E63FF007565FF006E74FF007261FF009D
:1057B000206CFF006100FF007365FF006E61FF0059
:1057C0006C2EFF000045FF007272FF006F72FF0039
:1057D0002036FF003900FF004275FF007363FF00B1
:1057E000616EFF00646FFF002073FF00656EFF00B5
:1057F000616CFF000044FF006174FF006F73FF00E5
:10580000206EFF007565FF00766FFF007300FF00DC
:105810002D2DFF002064FF006F6EFF006520FF004C
:105820002D2DFF000033FF002E2EFF002E00FF0065
:10583000322EFF002E2EFF000031FF002E2EFF0023
:105840002E00FF00506FFF007374FF00204FFF0019
:10585000636CFF007573FF00696FFF006E00FF004F
:105860005072FF006F63FF006573FF00616EFF0001
:10587000646FFF002020FF002020FF002020FF0099
:105880000046FF00696EFF00616CFF00697AFF004F
:105890006164FF006F00FF005361FF006C69FF004F
:1058A000723FFF000053FF006920FF002D3EFF0004
:1058B0002053FF007461FF007274FF0000FFFF00BF
:1058C00000FFFF000000FF00FFFFFF00FFFFFF00E1
:0200000401F009
:10000000E2FB0000FF7F0000FFFFFF00FFFFFF009B
:08001000FFFFFF00FFFFFF00EE
:00000001FF
